S0100000506F73744C6162342E737265632B
S11300000C9444000C944E000C944E000C944E003E
S11300100C944E000C944E000C944E000C944E0024
S11300200C944E000C944E000C944E000C944E0014
S11300300C944E000C944E000C944E000C944E0004
S11300400C944E000C944E000C944E000C944E00F4
S11300500C944E000C944E000C944E000C944E00E4
S11300600C944E000C944E00F7001701F900FB00AD
S1130070FD00FF00010103010501070109010B0156
S11300800D010F011101130111241FBECFEFD8E0A0
S1130090DEBFCDBF0E9441010C94AC010C94000062
S11300A087E680937C0087E880937A000895EAE7E6
S11300B0F0E080818064808380917A0086FDFCCFAB
S11300C08091790008959BB19E709BB995B1987FFA
S11300D095B988231CF49BB191609BB986FF03C03A
S11300E09BB190619BB985FF03C09BB190629BB9A2
S11300F084FF03C09BB190649BB983FF03C09BB191
S113010090689BB982FF03C095B1916095B981FF56
S113011003C095B1926095B980FF03C085B1846036
S113012085B90895681720F48BB182608BB908955E
S11301308BB18D7F8BB9089585B1877E85B908957C
S113014085B1886085B985B18F7E85B9089585B1FB
S1130150877F85B985B1806185B9089580FF04C022
S113016095B1906295B903C095B19F7D95B981FF12
S113017004C098B1916098B903C098B19E7F98B9B2
S113018082FF04C098B1926098B903C098B19D7F72
S113019098B983FF04C098B1946098B903C098B12A
S11301A09B7F98B984FF04C098B1986098B903C044
S11301B098B1977F98B985FF04C098B1906198B9B8
S11301C003C098B19F7E98B986FF04C088B180624D
S11301D088B9089588B18F7D88B9089590E08031F9
S11301E0910518F5FC01EC5CFF4F0C94A6018FE31C
S11301F008958BE508958FE4089586E608958DE6C5
S113020008958DE7089587E008958FE708958FE6B0
S1130210089587E708958CE7089589E308958EE5A6
S1130220089589E7089581E7089580E0089586E0B8
S11302300895CF93DF93D82FD295DF70C82FCF7056
S11302400E949C008D2F0E94EE000E94AE000E942E
S1130250A0008FE39FE10197F1F700C000000E9426
S11302609C008C2F0E94EE000E94AE000E94A7000A
S11302708FE39FE10197F1F700C00000DF91CF9178
S113028008950E9450008AB1837F8AB98BB18C6033
S11302908BB98AB1816F8AB98AB182608AB984B113
S11302A08F6384B987B18F6387B9D0E00E94570008
S11302B0C82F8D2F0E9463006D2F8C2F0E949200F7
S11302C010E040C08C2F0E9419014A991CC02FE7EE
S11302D088E391E0215080409040E1F700C00000A5
S11302E04A9911C0DF5F0DC00E945700C82F8D2F9F
S11302F00E9463006D2F8C2F0E9492008C2F0E940D
S113030019014A9BF1CF4B991CC02FE788E391E078
S1130310215080409040E1F700C000004B9911C08B
S1130320D1500DC00E945700C82F8D2F0E9463002A
S11303306D2F8C2F0E9492008C2F0E9419014B9BD1
S1130340F1CF1F5F143108F4BDCFB0CFEE0FFF1F04
S10F03500590F491E02D0994F894FFCF7F
S9030000FC
