:100000000C9434000C9449000C9449000C94490061
:100010000C9449000C9449000C9449000C9449003C
:100020000C9449000C9449000C9449000C9449002C
:100030000C9449000C9449000C9449000C9449001C
:100040000C9449000C9449000C9449000C9449000C
:100050000C9449000C9449000C9449000C944900FC
:100060000C9449000C94490011241FBECFEFD8E036
:10007000DEBFCDBF11E0A0E0B1E0ECECF2E002C0E9
:1000800005900D92A031B107D9F70E9432010C946E
:1000900064010C94000087E680937C0087E88093DD
:1000A0007A000895EAE7F0E080818064808380919F
:1000B0007A0086FDFCCF8091790008959BB19E70F7
:1000C0009BB995B1987F95B988231CF49BB1916039
:1000D0009BB986FF03C09BB190619BB985FF03C0AC
:1000E0009BB190629BB984FF03C09BB190649BB9A4
:1000F00083FF03C09BB190689BB982FF03C095B199
:10010000916095B981FF03C095B1926095B980FF68
:1001100003C085B1846085B90895681720F48BB158
:1001200082608BB908958BB18D7F8BB9089580FF64
:1001300004C095B1906295B903C095B19F7D95B902
:1001400098B186958F73907C892B88B9089595B165
:10015000977E95B9813021F485B1886085B908957D
:1001600085B1806185B90895CF93C82F85B1877E09
:1001700085B9EC2FE295EF70F0E0E050FF4F808101
:100180000E94970081E00E94A7008FE39FE1019702
:10019000F1F700C0000085B1877E85B9CF70EC2FE4
:1001A000F0E0E050FF4F80810E94970082E00E94C3
:1001B000A7008FE39FE10197F1F700C00000CF9106
:1001C00008950F931F93CF93DF938C01EB014A990E
:1001D00021C02FE788E391E0215080409040E1F773
:1001E00000C000004A9916C0F80180818F5F8083AB
:1001F0000FC00E9452008883F80180810E945E0037
:10020000F801608188810E948D0088810E94B4007D
:100210004A9BEFCF4B9921C0FFE728E381E0F150E3
:1002200020408040E1F700C000004B9916C0F80163
:100230008081815080830FC00E9452008883F80122
:1002400080810E945E00F801608188810E948D009B
:1002500088810E94B4004B9BEFCFDF91CF911F911B
:100260000F910895CF93DF9300D0CDB7DEB71982F9
:100270001A820E944B008AB1837F8AB98BB18C604D
:100280008BB98AB1836F8AB984B18F6384B987B11E
:100290008F6387B90E9452008A8389810E945E0021
:1002A00069818A810E948D0010E00BC08A810E94C2
:1002B000B400BE016E5F7F4FCE0101960E94E10047
:0C02C0001F5F143198F3E6CFF894FFCFD5
:1002CC003F065B4F666D7D077F6F777C395E79717A
:00000001FF
